:020000040000fa
:080000000002040000000000f2
:020000040000fa
:0400080028050000c7
:020000040000fa
:04000c0028050000c3
:020000040000fa
:0400100028050000bf
:020000040000fa
:0400140028050000bb
:020000040000fa
:0400180028050000b7
:020000040000fa
:04001c0028050000b3
:020000040000fa
:0400200028050000af
:020000040000fa
:0400240028050000ab
:020000040000fa
:0400280028050000a7
:020000040000fa
:04002c0028050000a3
:020000040000fa
:04003000280500009f
:020000040000fa
:04003400280500009b
:020000040000fa
:040038002805000097
:020000040000fa
:04003c002805000093
:020000040000fa
:04004000280500008f
:020000040000fa
:04004400280500008b
:020000040000fa
:04004800860300002b
:020000040000fa
:04004c002805000083
:020000040000fa
:04005000280500007f
:020000040000fa
:04005400c4040000e0
:020000040000fa
:040058006804000038
:020000040000fa
:04005c002805000073
:020000040000fa
:04006000280500006f
:020000040000fa
:04006400280500006b
:020000040000fa
:040068002805000067
:020000040000fa
:04006c002805000063
:020000040000fa
:04007000280500005f
:020000040000fa
:04007400280500005b
:020000040000fa
:040078002805000057
:020000040000fa
:04007c002805000053
:020000040000fa
:04008000280500004f
:020000040000fa
:04008400280500004b
:020000040000fa
:040088002805000047
:020000040000fa
:04008c002805000043
:020000040000fa
:04009000280500003f
:020000040000fa
:04009400280500003b
:020000040000fa
:040098002805000037
:020000040000fa
:04009c002805000033
:020000040000fa
:0400a000280500002f
:020000040000fa
:0400a4002a0300002b
:020000040000fa
:0400a8002805000027
:020000040000fa
:0400ac002805000023
:020000040000fa
:0400b000280500001f
:020000040000fa
:0400b400280500001b
:020000040000fa
:0400b8002805000017
:020000040000fa
:0400bc002805000013
:020000040000fa
:0400c000280500000f
:020000040000fa
:0400c400280500000b
:020000040000fa
:0400c8002805000007
:020000040000fa
:0400cc002805000003
:020000040000fa
:0400d00028050000ff
:020000040000fa
:0400d40028050000fb
:020000040000fa
:0400d80028050000f7
:020000040000fa
:0400dc0028050000f3
:020000040000fa
:0400e00028050000ef
:020000040000fa
:0400e40028050000eb
:020000040000fa
:0400e80028050000e7
:020000040000fa
:0400ec0028050000e3
:020000040000fa
:0400f00028050000df
:020000040000fa
:0400f40028050000db
:020000040000fa
:0400f80028050000d7
:020000040000fa
:0400fc0028050000d3
:020000040000fa
:0401000028050000ce
:020000040000fa
:0401040028050000ca
:020000040000fa
:0401080028050000c6
:020000040000fa
:04010c0028050000c2
:020000040000fa
:0401100028050000be
:020000040000fa
:0401140028050000ba
:020000040000fa
:0401180028050000b6
:020000040000fa
:04011c0028050000b2
:020000040000fa
:0401200028050000ae
:020000040000fa
:0401240028050000aa
:020000040000fa
:0401280028050000a6
:020000040000fa
:04012c0028050000a2
:020000040000fa
:04013000280500009e
:020000040000fa
:04013400280500009a
:020000040000fa
:040138002805000096
:020000040000fa
:04013c002805000092
:020000040000fa
:04014000280500008e
:020000040000fa
:04014400280500008a
:020000040000fa
:040148002805000086
:020000040000fa
:04014c002805000082
:020000040000fa
:04015000280500007e
:020000040000fa
:04015400280500007a
:020000040000fa
:040158002805000076
:020000040000fa
:04015c002805000072
:020000040000fa
:04016000280500006e
:020000040000fa
:04016400280500006a
:020000040000fa
:040168002805000066
:020000040000fa
:04016c002805000062
:020000040000fa
:04017000280500005e
:020000040000fa
:04017400280500005a
:020000040000fa
:040178002805000056
:020000040000fa
:04017c002805000052
:020000040000fa
:04018000280500004e
:020000040000fa
:04018400280500004a
:020000040000fa
:040188002805000046
:020000040000fa
:04018c002805000042
:020000040000fa
:04019000280500003e
:020000040000fa
:04019400280500003a
:020000040000fa
:040198002805000036
:020000040000fa
:04019c002805000032
:020000040000fa
:0401a000280500002e
:020000040000fa
:0401a400280500002a
:020000040000fa
:0401a8002805000026
:020000040000fa
:0401ac002805000022
:020000040000fa
:0401b000280500001e
:020000040000fa
:0401b400280500001a
:020000040000fa
:0401b8002805000016
:020000040000fa
:0401bc002805000012
:020000040000fa
:0401c000280500000e
:020000040000fa
:0401c400280500000a
:020000040000fa
:0401c8002805000006
:020000040000fa
:0401cc002805000002
:020000040000fa
:0401d00028050000fe
:020000040000fa
:0401d40028050000fa
:020000040000fa
:0401d80028050000f6
:020000040000fa
:0401dc0028050000f2
:020000040000fa
:0401e00028050000ee
:020000040000fa
:0401e40028050000ea
:020000040000fa
:0401e80028050000e6
:020000040000fa
:0401ec0028050000e2
:020000040000fa
:0401f00028050000de
:020000040000fa
:0401f40028050000da
:020000040000fa
:0401f80028050000d6
:020000040000fa
:0401fc0028050000d2
:020000040000fa
:0402000028050000cd
:020000040000fa
:0402040028050000c9
:020000040000fa
:0402080028050000c5
:020000040000fa
:04020c0028050000c1
:020000040000fa
:0402100028050000bd
:020000040000fa
:0402140028050000b9
:020000040000fa
:0402180028050000b5
:020000040000fa
:04021c0028050000b1
:020000040000fa
:0402200028050000ad
:020000040000fa
:0402240028050000a9
:020000040000fa
:0402280028050000a5
:020000040000fa
:04022c0028050000a1
:020000040000fa
:04023000280500009d
:020000040000fa
:040234002805000099
:020000040000fa
:040238002805000095
:020000040000fa
:04023c002805000091
:020000040000fa
:04024000280500008d
:020000040000fa
:040244002805000089
:020000040000fa
:040248002805000085
:020000040000fa
:04024c002805000081
:020000040000fa
:04025000280500007d
:020000040000fa
:040254002805000079
:020000040000fa
:040258002805000075
:020000040000fa
:04025c002805000071
:020000040000fa
:04026000280500006d
:020000040000fa
:040264002805000069
:020000040000fa
:040268002805000065
:020000040000fa
:04026c002805000061
:020000040000fa
:04027000280500005d
:020000040000fa
:040274002805000059
:020000040000fa
:040278002805000055
:020000040000fa
:04027c002805000051
:020000040000fa
:04028000280500004d
:020000040000fa
:040284002805000049
:020000040000fa
:040288002805000045
:020000040000fa
:04028c002805000041
:020000040000fa
:04029000280500003d
:020000040000fa
:040294002805000039
:020000040000fa
:040298002805000035
:020000040000fa
:04029c002805000031
:020000040000fa
:0402a000280500002d
:020000040000fa
:0402a4002805000029
:020000040000fa
:0402a8002805000025
:020000040000fa
:0402ac002805000021
:020000040000fa
:0402b000280500001d
:020000040000fa
:0402b4002805000019
:020000040000fa
:0402b8002805000015
:020000040000fa
:0402bc002805000011
:020000040000fa
:0402c000280500000d
:020000040000fa
:0402c4002805000009
:020000040000fa
:0402c8002805000005
:020000040000fa
:0402cc002805000001
:020000040000fa
:0402d00028050000fd
:020000040000fa
:0402d40028050000f9
:020000040000fa
:0402d80028050000f5
:020000040000fa
:0402dc0028050000f1
:020000040000fa
:0402e00028050000ed
:020000040000fa
:0402e40028050000e9
:020000040000fa
:0402e80028050000e5
:020000040000fa
:0402ec0028050000e1
:020000040000fa
:0402f00028050000dd
:020000040000fa
:0402f40028050000d9
:020000040000fa
:0402f80028050000d5
:020000040000fa
:0402fc0028050000d1
:020000040000fa
:0403000028050000cc
:020000040000fa
:0403040028050000c8
:020000040000fa
:0403080028050000c4
:020000040000fa
:04030c0028050000c0
:020000040000fa
:0403100028050000bc
:020000040000fa
:0403140028050000b8
:020000040000fa
:0403180028050000b4
:020000040000fa
:04031c0028050000b0
:020000040000fa
:0403200028050000ac
:020000040000fa
:10040000ef9e22000eff22000e0188000000000077
:10041000000020000000e000020032000001200087
:1004200020028800140007008b0107000000e00094
:1004300003003a00c0e62700010020000200370058
:100440000000200001002000810f70000100320038
:100450000f000700000020000000e0000200320052
:100460000000020000000000e07c0200000000002c
:100470000040da000000fe00607320000000e00091
:1004800002003200002020009001880000000600d9
:10049000a1028800800478000000eb001f003700f4
:1004a000e284440054a0b4009905ba00e2844400f8
:1004b00054a0b4009906ba00e284440054a0b400e9
:1004c0000006eb00476fde00fd07b200ae018800ba
:1004d000636ce10003003a000ad801000000eb0061
:1004e0000e003700606ce10008003a00004deb00a0
:1004f0000a05e800020039003420ec000af0a000f0
:100500008b05e900f9ff3e00040037006168e10057
:10051000010032000086eb000b00070019c7ba008b
:100520000e04e0001905ba0003003a000a00e000da
:10053000dbff3a0000000600fe07b200ae028800b2
:100540008a047800f5ff37000cd0a300e20f4d00bd
:100550001c00390089027800354dba000a05e80010
:10056000020039003420ec000af0a0008b05e900fd
:100570000f003200254dba000a05e80002003900dc
:100580003420ec000af0a0008b05e90008003200de
:100590000c00e0000600320015cdba000a05e800a4
:1005a000020039003420ec000af0a0008b05e900bd
:1005b0008984e80054a0b4000b00e000e2ff3a0098
:1005c000000006009902ba00055d78008b05e9007d
:1005d000f7ff3200c82ade00055d78008b05e900d0
:1005e000f3ff32000c00e000f1ff320019ddba0029
:1005f000eeff3700a0550400000000007055040015
:10060000000000008455040000000000985504001c
:10061000000000001855040000000000c449040058
:1006200000000000a049040000000000d0500400b9
:1006300000000000d249040000000000544b0400f8
:1006400000000000f04f04000000000052500400c1
:1006500000000000809fbe003200f8003400f80067
:1006600010002000a00188000020200090018800d8
:10067000000000000200fa000f0037002005810092
:10068000e1c921008100400091407800014f7800cd
:100690000000e800200589001e80fb00a0118800f2
:1006a0002105810040402000808f500002003a0068
:1006b0000000eb002005890091118000002020003f
:1006c000008060000000e00004003a001105810095
:1006d00020058100808f5000e8ff3a00110581005d
:1006e00020058100808f500002003a0023e8a90015
:1006f0000100370003e8a9000080fa003400f90087
:100700003200f9004f00be0000400600809fbe008e
:10071000829fbe000200fa000040eb00004f78000c
:10072000630037001e80fb00ea00b900e8004000cb
:10073000c090220000804000100078000040780047
:10074000614060000004e000550032001e80fb00a4
:10075000ea00b900e8004000c0902200008040009c
:10076000100078004200de00614060000004e000fc
:100770004d0032001e80fb00ea00b900e40040009a
:10078000c09022000080400090009000100078008f
:10079000e00f5000e08f58000e0032001e81fb0079
:1007a000ea10b900e4004000c09022000080400040
:1007b000900090001000780061005000e080580028
:1007c000ea11b90082017800029122000281410001
:1007d0000089be001e80fb00ea00b900e400400072
:1007e000c09022000080400090009000100078002f
:1007f000e00f5000e08f58002c003a001e80fb00f4
:10080000ea00b9008000780040912200008040009a
:10081000900078000130a000010878001e80fb00e5
:10082000ea00b900e8004000c090220000804000cb
:10083000100078000000d10061406000e14f5000de
:100840000e003a001e81fb001e80fb00ea00b9008a
:1008500080007800c090220000804000900090004e
:1008600010007800ea11b90082017800029122009c
:10087000028141000089be000c0037001e80fb0091
:10088000ea00b9008000780040912200008040001a
:10089000900078000120a1000108780003003700d3
:1008a0000000000001003700000000001e4fe800bb
:1008b0001e407800ef4f50009aff36000108a90053
:1008c0000080fa004f01be004f00be00004006004d
:1008d000809fbe003200f8003400f80010002000b5
:1008e000a001880000202000900188000000000086
:1008f0000200fa000f003700a0a2800021052100ad
:100900008100400091407800014f78000000e8002d
:10091000a0a288001e80fb0020118800a1a28000f8
:1009200000402000808f500002003a000000eb00e1
:10093000a0a288001111800000202000008060002b
:100940000000e00004003a0091a28000a0a2800014
:10095000808f5000e8ff3a0091a28000a0a28000a2
:10096000808f500002003a002188a9000100370062
:100970000188a9000080fa003400f9003200f90073
:100980004f00be0000400600809fbe00821f78001e
:100990003200f8003400f80010002000a0018800a8
:1009a0000020200090018800000000000200fa00f2
:1009b0001c003700b0c28000000fe800004020009b
:1009c0009e007800808f500002003a0000c02f0087
:1009d0001e0f4000c0c280009e0f50001000320069
:1009e000b2c2800030118000804078006045210054
:1009f0000000410001487800b0c280000000e8001b
:100a0000b0c28800b1c2800000402000808f50003a
:100a100004003a000000eb00b0c28800010037007b
:100a20003011800010118000610060000000e000c3
:100a3000e0ff3a000168a9000080fa003400f900e4
:100a40003200f9004f0178004f00be000040060060
:100a50000040da000000fe0000000500889fbe0094
:100a60008a9fbe008c1f7800cc000700d3003300a3
:100a700003866c006450e1002e0032006420e10027
:100a8000330032006150e1002f0032006120e100ac
:100a90003100320085855500eb07b00009002000c9
:100aa00008042000050037000804440089844c0035
:100ab0000a0031000603430087834b000001530006
:100ac00081815b00f8ff33000203be000800a00034
:100ad0000804440089844c00f6ff3900c639dd0063
:100ae0008301730001003200130020008904d1004b
:100af0000884d3000998a300050032000800a7006d
:100b00000300a0008904d1000884d3008b05e8000d
:100b10008904d1000884d3000001eb000281d200d7
:100b20006300070001f0a1000cf0a70001f0a00095
:100b3000ab0037006420e100ad0032000801be00c8
:100b40000200be00f7ff37006120e100a80032007c
:100b50006000b800f3ff37000000200001f8270014
:100b6000f0ff3700839f68000100e00002003d00b5
:100b700060001000e08018000300e00002003d006b
:100b800060011100e0811900df0007004f00e00064
:100b900002003b0060001000e0801800000006002a
:100ba00014002000eb0037000001be0066000700c3
:100bb0000470a70003f0a1006509b100160032001f
:100bc0000d0035006828e10006003500f0ff2f0019
:100bd000f1ff27000300e00013003b0001002800a4
:100be0000000050000004000818048008502e90007
:100bf000fcff3a0008003700f88f420002003c007a
:100c00008000eb00000005008100d1000080d300cf
:100c10008502e800fcff3a000300e00002003b0010
:100c200060001000e0801800000006000003be0015
:100c3000450007006011b8000470a70007f0a1008c
:100c400007f8a30017003a006509b1000d00320053
:100c50000d003500860220000628e1000300350063
:100c6000030028006000b8000200050000004000fa
:100c70008180480002014900838149008502e90022
:100c8000faff3a0000000600f88f42000500340029
:100c90008100d1000080d3008502e800fcff3a000b
:100ca000000006006011b8008000eb0000000500a5
:100cb00081002000618055000b003d000b002000ea
:100cc00061fe2f000100e1001d00340082817100ef
:100cd000610164008904d1000884d3000000e800a9
:100ce000faff3a0071002000610064000300700008
:100cf000020060000900320061044400e0844c00fe
:100d00000988a500050032008b05e8006808e100ad
:100d100002003a008904d1000884d300f20f2000b9
:100d20000258e10005003d00c75ddd00f907b20093
:100d30008980750008007800000006000bf8270085
:100d40008b00780000000500c70ade00f107b20042
:100d5000f50fb20008003200e1cf4200020032007d
:100d60000170a00024000500810f70000100320016
:100d70000408050044000500810f700002003a00dd
:100d8000140005008502e9000000400081c0480011
:100d9000fcff3b000170a000240005000004be0021
:100da000e9ff07000003be000405be000200be000c
:100db000e5ff0700844f7500000006000200be003a
:100dc0006450e100050036006420e10002003600b6
:100dd0000968a30001003a000800be000160a000fd
:100de0004f0678004f05be004f04be00000006000d
:100df000f0ff2f00f1ff2700f9ff3700811f780077
:100e00000100e00002003d0060001000e0801800da
:100e10000300e00002003d0060011100e0811900c4
:100e2000490007004f00e00002003b006000100096
:100e3000e080180000000600889fbe008a9fbe0068
:100e40008c1f7800d5ff0700dcff330003866c00a1
:100e50006450e100240032006420e10027003200e9
:100e60006150e100220032006120e10021003200e7
:100e70008b854200eb07b1000134b800003ab8009e
:100e80000804420089844a00013ab8000030b800e2
:100e90008880400009014a0004003300000040003f
:100ea00081804800020149008b05e900c909dd0085
:100eb000830170000100320013002000c814de001e
:100ec0004814dd004709de001200b200c808de0049
:100ed0000884700076ff070001f0a1000cf0a70065
:100ee00001f0a000beff37006120e100c0ff32002a
:100ef0000801be000200be00f7ff37006150e100ac
:100f0000fcff3a00baff37006022b800060220005a
:100f10000000d0008180d2000482d2008582d200fd
:100f20000000a0000202520083825a000300310038
:100f30000202420083824a000000a1000603e90089
:100f4000f3ff3a0000000600efff07000400be00b8
:100f500000000600889fbe008a9fbe00841f7800a4
:100f60008eff07004f00780011003300f0ff2f00c4
:100f7000838f6c0006003b00040565000a00a70093
:100f80000800370009f0a600100020000800370014
:100f9000820f5400838f5c00030039001000200092
:100fa00001003e000000200009f0a7000000ea0058
:100fb0004f05be004f04be000000e0000000060028
:100fc0000900370030427800b1417800834f520069
:100fd0000400320010002000060031000080eb0009
:100fe000000006000201e9000200e000f5ff3a00ff
:100ff0000000eb00000006008001780002003700ce
:10100000b15978000201e9000200e000fcff3a005b
:101010000000060080017800020037008159780046
:101020000201e9000200e000fcff3a0000000600b7
:1010300000017800820178003204e000fdff3a00f0
:1010400003017800b1417800035978000304e000ff
:10105000fcff3a00000006008000780001017800e3
:101060003104e000fdff3a000000510000000600de
:101070008001780002003700845978000201e900fd
:101080000200e00006003200314278000404e00073
:10109000f9ff3a00020037008059eb000201e90035
:0c10a0000200e000fcff3a000000060027
:020000040000fa
:1010ac006d7000007074000020730000746100000b
:1010bc0074750000730000000000000000000000c8
:1010cc000000000080010000002000000100000072
:1010dc0006000000000000000000000000000000fe
:1010ec000000000000000000736f00006c61000045
:1010fc0072200000766f00006c74000061670000c5
:10110c0065000000000000000000000080020000ec
:10111c000020000001000000020000006d560000dd
:10112c0000000000000000000000000000000000b3
:10113c00736f00006c61000072200000637500008a
:10114c0072720000656e0000740000000000000068
:10115c0000000000800200000120000001000000df
:10116c00020000006d4100000000000000000000c3
:10117c000000000000000000636800003120000047
:10118c006375000072720000656e00007400000050
:10119c0000000000000000000000000080020000c1
:1011ac000220000001000000020000006d41000060
:1011bc000000000000000000000000000000000023
:1011cc00636800003220000063750000727200003a
:1011dc00656e0000740000000000000000000000bc
:1011ec00000000008002000003200000010000004d
:1011fc00020000006d410000000000000000000033
:10120c000000000000000000736f00006c61000023
:10121c0072200000706f0000776500007200000003
:10122c000000000000000000000000008002000030
:10123c000420000001000000000000006d570000b9
:10124c000000000000000000000000000000000092
:10125c006261000074740000207600006f6c000066
:10126c0074610000676500000000000000000000d1
:10127c0000000000800200000520000001000000ba
:10128c00020000006d56000000000000000000008d
:10129c000000000000000000736c000073200000d0
:1012ac00737400006174000075730000000000008e
:1012bc0000000000000000000000000080010000a1
:1012cc0000200000010000000600000000000000eb
:1012dc000000000000000000000000000000000002
:1012ec00746500006d700000207000006f770000c6
:1012fc00657200000000000000000000000000000b
:10130c00000000008002000000200000010000002e
:10131c000300000031300000306d000064650000f7
:10132c006743000000000000746500006d70000051
:10133c00206500006c65000063740000726f000093
:10134c006e69000063730000000000008002000062
:10135c0000200000020000000300000031300000fb
:10136c00306d000064650000674300000000000061
:10137c00746500006d700000206d00006f7400003b
:10138c006f7200002031000000000000000000001f
:10139c00000000008002000001200000010000009d
:1013ac000300000031300000306d00006465000067
:1013bc006743000000000000746500006d700000c1
:1013cc00206d00006f7400006f720000203200006e
:1013dc00000000000000000000000000800200007f
:1013ec00012000000200000003000000313000006a
:1013fc00306d0000646500006743000000000000d1
:10140c00555a00004b0000000000000000000000d6
:10141c0000000000000000000000000000000000c0
:10142c00000000008003000000200000010000000c
:10143c0002000000313000006d560000000000007a
:10144c0000000000000000006d6f0000746f0000d1
:10145c00722000006375000072720000656e00005f
:10146c007400000000000000000000008003000079
:10147c0001200000010000000300000031300000da
:10148c00306d000041000000000000000000000072
:10149c00696e000070750000742000006375000018
:1014ac0072720000656e0000740000000000000005
:1014bc00000000008003000002200000010000007a
:1014cc000300000031300000306d000041000000ce
:1014dc000000000000000000727000006d000000b1
:1014ec0000000000000000000000000000000000f0
:1014fc00000000000000000000000000800300005d
:10150c0003200000010000000200000072700000c7
:10151c006d00000000000000000000000000000052
:10152c00696e00007075000074200000706f000080
:10153c0073200000310000000000000000000000db
:10154c0000000000800200000020000001000000ec
:10155c000200000072610000770000000000000033
:10156c0000000000000000006f75000074700000a7
:10157c0075740000207000006f73000020310000b3
:10158c0000000000000000000000000080020000cd
:10159c000120000001000000020000007261000048
:1015ac0077000000000000000000000000000000b8
:1015bc00746900006d650000000000000000000070
:1015cc00000000000000000000000000000000000f
:1015dc00000000008001000000200000010000005d
:1015ec0000000000000000000000000000000000ef
:1015fc0000000000000000006c6100007469000035
:10160c00747500006465000000000000000000001c
:10161c00000000000000000000000000800100003d
:10162c0001200000010000000000000064650000c3
:10163c006700000000000000000000000000000037
:10164c006c61000074690000747500006465000032
:10165c00000000000000000000000000000000007e
:10166c0000000000800100000120000002000000ca
:10167c000000000031300000756d0000696e000044
:10168c0000000000000000006c6f00006e6700009e
:10169c006974000075640000650000000000000023
:1016ac0000000000000000000000000080010000ad
:1016bc000220000001000000000000006465000032
:1016cc0067000000000000000000000000000000a7
:1016dc006c6f00006e670000697400007564000098
:1016ec006500000000000000000000000000000089
:1016fc000000000080010000022000000200000039
:10170c000000000031300000756d0000696e0000b3
:10171c000000000000000000737000006565000010
:10172c006400000000000000000000000000000049
:10173c00000000000000000000000000800200001b
:10174c000020000001000000020000003130000009
:10175c006d2f000068000000000000000000000079
:10176c00646900007265000063740000696f00001a
:10177c006e000000000000000000000000000000ef
:10178c0000000000800200000120000001000000a9
:10179c000200000031300000306d00006465000074
:1017ac006700000000000000736100007465000019
:1017bc006c6c000069740000657300000000000090
:1017cc00000000000000000000000000800300008a
:1017dc0000200000010000000200000000000000da
:1017ec0000000000000000000000000000000000ed
:1017fc00766f00006c7400006167000065000000eb
:10180c0000000000000000000000000000000000cc
:10181c000000000000030000052000000100000093
:10182c00020000006d5600000000000000000000e7
:10183c0000000000000000006375000072720000e0
:10184c00656e000074000000000000000000000045
:10185c000000000000000000000000000003000079
:10186c0005200000020000000300000031300000e1
:10187c006d410000000000000000000000000000ae
:10188c006469000073630000686100007267000007
:10189c0065200000616d0000707300000000000006
:1018ac000000000000030000052000000300000001
:1018bc0003000000313000006d410000000000000a
:1018cc00000000000000000063680000617200006e
:1018dc0067650000206100006d700000730000005f
:1018ec0000000000000000000000000000030000e9
:1018fc00052000000400000003000000313000004f
:10190c006d4100000000000000000000000000001d
:10191c00736f000063000000000000000000000076
:10192c0000000000000000000000000000000000ab
:10193c00000000000003000005200000050000006e
:10194c000400000025000000000000000000000062
:10195c000000000000000000746900006d650000cc
:10196c00207400006f200000676f00000000000072
:10197c000000000000000000000000000003000058
:10198c000520000007000000020000006d69000047
:10199c006e000000000000000000000000000000cd
:1019ac00766f00006c740000616700006520000019
:1019bc00696e000000000000000000000000000044
:1019cc000000000001000000010000000100000008
:1019dc00000000006d560000000000000000000038
:1019ec00000000000000000063750000727200002f
:1019fc00656e000074200000696e0000000000009d
:101a0c0000000000000000000000000002000000c8
:101a1c000200000002000000000000006d41000008
:101a2c0000000000000000000000000000000000aa
:101a3c00706f00007765000072200000696e000076
:101a4c00000000000000000000000000000000008a
:101a5c000000000003000000030000000300000071
:101a6c00000000006d5700000000000000000000a6
:101a7c000000000000000000766f00006c74000095
:101a8c0061670000652000006f75000074000000a5
:101a9c000000000000000000000000000400000036
:101aac000400000004000000000000006d5600005f
:101abc00000000000000000000000000000000001a
:101acc00c4490000a0490000d0500000d2490000d9
:101adc00544b0000f04f00005250000046610000d3
:101aec00696c000065640000207400006f20000029
:101afc00696e00006974000020460000494c00002b
:101b0c00454900004f0d00000a0000004e6f000018
:101b1c00206d000065640000696100002064000015
:101b2c00657400006563000074650000640d0000be
:101b3c000a0000004d65000064690000612000008f
:101b4c006465000074650000637400006564000047
:101b5c000d0a0000004d0000656400006961000082
:101b6c00207700007269000074650000207000008e
:101b7c00726f0000746500006374000065640000ff
:101b8c000d0a00000053000075630000636500003f
:101b9c0073730000667500006c6c00007920000007
:101bac006d6f0000756e000074650000642000000d
:101bbc007468000065200000647200006976000003
:101bcc00650d00000a00000045720000726f0000f5
:101bdc00722000006d6f0000756e000074690000cb
:101bec006e670000206400007269000076650000da
:101bfc000d0a0000004c00004f470000002e0000b2
:101c0c0043530000560000000000000000000000dc
:101c1c0000000000000000000000000000000000b8
:101c2c00000000000000000055730000696e000009
:101c3c00672000006c6f000067660000696c000094
:101c4c0065200000000d00000a0000003b000000b1
:101c5c00000d00000a540000696d0000655300007f
:101c6c00696e000063650000426f00006f74000035
:101c7c003b0000000d0a00006d7300003b000000eb
:101c8c0000950000000000000000000001f90000b9
:101c9c0000000000000000000887000004000000a5
:101cac000000000009af000000000000010000006f
:101cbc000a1b000000000000010000000cc3000023
:101ccc0001000000000000000daf00000200000049
:101cdc000000000010ff00000000000000000000e9
:101cec0011ff0000000000000100000012ff0000c6
:101cfc00000000000100000018ff000000000000c0
:101d0c000100000019ff00000000000001000000ad
:101d1c0020ff0000000000000000000021ff000078
:101d2c00000000000000000026df000001000000a1
:101d3c0000000000377300000000000000000000ed
:101d4c003a25000004000000000000003b250000c4
:101d5c00000000000000000029ff0000040000004b
:101d6c000000000017ff0000000000000000000051
:101d7c00486500006c6c00006f200000756e000060
:101d8c00697600006572000073650000210d00008b
:101d9c000a42000065630000617500007365000075
:101dac00206700007265000065740000696e000019
:101dbc00672000007468000065200000776f000049
:101dcc00726c000064200000697300002074000035
:101ddc00686900006e6b0000696e000067200000ef
:101dec00746f00006f200000736d0000616c0000c8
:101dfc006c2e00002e2e00000d0a00000054000076
:101e0c00696d000065200000736900006e630000be
:101e1c0065200000626f00006f7400007570000098
:101e2c003a20000000730000656300000d0a0000fa
:101e3c0000540000696d0000653a000020000000ad
:101e4c003a0000000d0a00000000000039380000c4
:101e5c0037360000353400003332000031300000da
:101e6c0031320000333400003536000037380000c2
:101e7c003900000046450000444300004241000088
:101e8c00393800003736000035340000333200009a
:101e9c0031300000313200003334000035360000a0
:101eac00373800003941000042430000444500002f
:101ebc0046000000212300002425000026270000f6
:101ecc00282900002d4000005e5f0000607b0000b0
:101edc007d7e0000205c00002f3a00002a3f0000ad
:101eec00223c00003e7c0000303100003233000008
:101efc00343500003637000038390000414200000c
:0c1f0c00434400004546000000000000b7
:020000040000fa
:101f18000200fa00000f78009e00780031818800e6
:101f28000080fa00000006000200fa000000eb0042
:101f3800000f78003b003700400221001e004000df
:101f480011c0b300014878009e00780060032000ab
:101f58008088b90080007800c09c22000080400082
:101f6800810a2200f20f200002816000904178006f
:101f7800e0c1610002c1710002487800c808de00b3
:101f8800104190006041610081407100114098004b
:101f98009e007800600320008088b90080007800e7
:101fa800e09c220000804000812a2200f20f2000dd
:101fb8000281600090417800e0c1610002c17100b7
:101fc80002487800c808de001041900060416100b6
:101fd80081407100114098009e0078006003200045
:101fe8008088b90080007800009d220000804000b1
:101ff800219e2200f20f20000281600090417800ab
:10200800e0c1610002c1710002487800c808de0022
:1020180010419000604161008140710011409800ba
:102028001e0fe8001e0078000000e000c2ff340028
:102038000000eb00604f8900504f81000000a100b4
:10204800504f8900504f81000010a100504f890067
:102058000080eb008080eb00104f8900214f890041
:102068000080eb008080eb00304f8900414f8900f1
:10207800800221008000eb003100980082022100dc
:102088006000b8001001980021019800800221002a
:102098008000eb0001087800100020000080fa00a2
:1020a800000006000000fa009fff07000080fa0009
:1020b800000006000400fa00000f780011079800dd
:1020c8001e007800900090001e00900001000100a2
:1020d8000080fa00000006000400fa00204798007b
:1020e8000040eb00004f7800180037009e80fb008e
:1020f8004002210000804000104078000004e00009
:1021080011003a009e80fb00600320008088b9001f
:102118000003b000d19a220000804000904078006f
:102128002e40900080cf500007003a009e80fb00b0
:10213800600320008088b90080007800c09a2200df
:1021480000804000050037001e4fe8001e40780060
:102158000004e000e5ff32000000eb000080fa0018
:10216800000006000400fa00204798002e40900066
:10217800d9ff0700000f78001e0078000000e0007b
:1021880002003a000000eb00030037001e00780050
:10219800606890000080fb000080fa0000000600e4
:1021a8000e00fa00004f9800510798006207980047
:1021b8000000eb00000f78000e489000c6ff0700f3
:1021c800100798001e0090000000e0004a003a0046
:1021d8000040eb0040479800440037004e40900014
:1021e8008080fb0040022100008040001040780001
:1021f8000004e0003a0032004e4090008080fb006e
:1022080040022100008040008040eb000148780037
:102218004e4090000081fb00d19a2200600320000c
:102228008090b900008040000003b0008e48900004
:10223800014878004e4090008080fb006003200039
:102248008088b90080007800209d2200008040002e
:102258005e019000f10f20008100610010417800bc
:10226800604161008140710001487800de00900003
:10227800c808de0010419000604161008140710093
:10228800114098004e4090008080fb0060032000c1
:102298008088b90080007800c09a22000080400041
:1022a800100798001e009000a0709000e0c0600029
:1022b8000114a00021709800b0709000e0c0600088
:1022c80031709800c0709000e0c0600041709800c4
:1022d800d0709000e0c06000517098000600370090
:1022e8004e4090000040e800404798004e40900063
:1022f8000004e000b9ff32001e0090000000e0007a
:1023080002003a00300220009e0037001e009000b4
:10231800c06090008180fb00506090000080fb004e
:102328004800dd0000807000d00090001e00900082
:10233800808f500009003a001e009000c060900095
:102348008180fb00506090000080fb004800dd00a9
:10235800008070008000eb00510098001e00900083
:10236800b31b07000000e0000200320090002000cc
:10237800840037001e0090006e019000f10f2000cd
:102388008100610000699000604161008140710036
:1023980001689800ee009000c808de0010699000ff
:1023a8006041610081407100116898005e009000f2
:1023b800100078000000e000040032005e00900089
:1023c800900078006e009000010001005e0090000f
:1023d800a00090006e0090000100010030079800f6
:1023e8003e009000100078000000e000030032007a
:1023f80060002000000f7800260037003e009000a3
:1024080010009000610060000000e0002100320030
:102418003e009000200090006101b8001e0090006e
:10242800f10f200081006100005a900060426200b4
:102438008140720001589800c810de00105a9000c0
:10244800604262008140720011589800f10f20002c
:1024580081806100205a90006042620081407200d1
:1024680021589800c818de0030599000604161007a
:1024780081407100315898003e009000a000900003
:1024880000202000808f500002003600400220000b
:10249800000f78001e0078000000e00009003a00f4
:1024a8001e00900039000700000f78001e00780019
:1024b8000000e00003003a001e0090006d010700d4
:1024c800000f78001e0078000000e0001d003a00b0
:1024d80080022100300090000000e00028003a004f
:1024e800800221009e009000310098001e0190009b
:1024f800c24990008381fb00524a90000482fb008d
:102508004822dd008481710003007800e2499000d0
:102518008381fb00724990000281fb004811dd00b5
:102528000281710082007800820221001001980067
:1025380021019800800221008000eb00010878004a
:102548000f0037004e4090000081fb00d19a220016
:10255800600320008090b900008040000003b000b4
:102568008040eb00014878004e4090008080fb00de
:10257800400221000080400011c0b30001487800eb
:102588001e0078000080fa00000006001000fa0023
:102598007007980010c0b300004f78000000eb00ef
:1025a800100798007e009000e06090008180fb009a
:1025b800706090000080fb004800dd000080700023
:1025c800400290007e009000806090008180fb00b7
:1025d800106090000080fb004800dd000080700063
:1025e800800078007e009000006990000281fb0066
:1025f800106890000080fb004800dd0000007100ba
:102608006011b800040001000004a2000004e0000a
:1026180003003200800020001007980012013700e4
:102628007e009000c06090008180fb0050609000a8
:102638000080fb004800dd00008070000001780089
:102648006000b8000089be007e00900080609000a5
:102658008180fb00106090000080fb004800dd00d6
:1026680000807000400798004e009000e0f893004a
:1026780050c5b30080cf50007f003a004e00900054
:10268800f0f89300a0cab30080cf50007a003a0057
:102698004e009000e070900060c4b30080cf5000fe
:1026a80027003a004e009000f070900010c4b3006c
:1026b80080cf500022003a004e00900080789000b1
:1026c80040c5b30080cf50001d003a004e00900076
:1026d8009078900010c3b30080cf500018003a00e3
:1026e8004e009000e060900090c2b30080cf500090
:1026f80013003a007e00900090407800e0c060002f
:102708000148780090409000e0c0600011409800b7
:10271800a0409000e0c0600021409800b0409000c8
:10272800e0c06000314098007e00900021c0b300f6
:10273800616898000040eb00004f78004e003700b9
:102748007e009000806090008180fb001060900007
:102758000080fb004800dd00008070002005b0000c
:102768009040780060c4b30080cf500042003a0027
:102778007e009000806090008180fb0010609000d7
:102788000080fb004800dd00008070003005b000cc
:102798009040780010c4b30080cf500036003a0053
:1027a8007e009000806090008180fb0010609000a7
:1027b8000080fb004800dd00008070004005b0008c
:1027c8009040780040c5b30080cf50002a003a00fe
:1027d8007e009000806090008180fb001060900077
:1027e8000080fb004800dd00008070005005b0004c
:1027f8009040780030c3b30080cf50001e003a00ec
:102808007e009000806090008180fb001060900046
:102818000080fb004800dd00008070002004b0004c
:102828009040780090c2b30080cf500012003a0068
:102838007e00900090407800e0c060000148780079
:1028480090409000e0c0600011409800a0409000c7
:10285800e0c0600021409800b0409000e0c06000f7
:10286800314098007e00900031c0b3006168980044
:102878000040eb00004f78001e4078000004e000a4
:10288800790032007e009000806090008180fb001b
:10289800106090000080fb004800dd0000807000a0
:1028a800500798005e009000e0f8930050c5b30010
:1028b80080cf500005003a005e009000f0f89300c9
:1028c800a0cab30080cf50000300320040002000af
:1028d80010079800640037005e009000e01bb0000d
:1028e800300798007e0090008040eb0061689800f7
:1028f8000040eb0040479800500037003e00900031
:10290800804890008180fb00104a90000482fb0000
:102918004822dd008480700001017800a048900002
:102928008180fb00304890000080fb004800dd00fb
:1029380000807000800178007e009000f10f200078
:10294800810061001042780060426200814072009c
:1029580001487800c810de00104290006042620012
:102968008140720011409800f10f200081806100c1
:10297800204290006042620081407200214098002d
:10298800c818de003041900060416100814071004c
:10299800314098003e009000c0409000414f9800a0
:1029a8004e4890000080fb00ee0f500019003e00da
:1029b800110020000008dd000105240081006000ee
:1029c8000100e0000b003a00018021008100600056
:1029d8000100e0000b003a00620060000000e00027
:1029e8000c0032007e00900011c0b30061689800ae
:1029f800080037007e00900021c0b300616898008d
:102a0800040037007e00900031c0b3006168980070
:102a1800000000007e009000606890000004e00064
:102a28000a003a003e00900070004000300798000d
:102a38004e4090000040e800404798004e4090000b
:102a4800e34f5000adff36000100370000000000e2
:102a58007e009000606890000004e00002003a00e8
:102a680050002000100798001e0090000080fa0017
:102a7800000006001800fa00889fbe008a1f780030
:102a8800300f98000000eb00000f78006000b800dd
:102a980070079800010f98000000eb00200f9800c5
:102aa8000040eb00204798000040eb0030479800ba
:102ab8003e089000e06090008180fb00706090000c
:102ac8000080fb004800dd0000807000400290009c
:102ad8003e089000806090008180fb0010609000ac
:102ae8000080fb004800dd00008070008000780056
:102af8003e0890009082fb00104390000683fb0084
:102b08004833dd008682720005017800a0429000fb
:102b18008582fb00304090000080fb004800dd000b
:102b280000807200800178003e089000806a900062
:102b38008582fb00106890000080fb004800dd00e3
:102b480000807200040001000004a2000004e000fc
:102b58000300320080002000000f7800da023700fe
:102b68003e089000c06090008180fb00506090009b
:102b78000080fb004800dd000080700080017800c4
:102b88003e0990001282fb00924290008582fb0071
:102b9800c82add0005027200040078002242900075
:102ba8000482fb00324190000281fb004811dd00e5
:102bb80002017200820078008089be003e08900001
:102bc800806090008180fb00106090000080fb0016
:102bd8004800dd0000807000200798002e0090005b
:102be800e0f8930050c5b30080cf500005003a00cc
:102bf8002e009000f0f89300a0cab30080cf5000d8
:102c08000300320030002000000f78000202370075
:102c18003e089000806090008180fb00106090006a
:102c28000080fb004800dd0000807000ee004000de
:102c38007400470022002000edf807003e089000cd
:102c4800806090008180fb00106090000080fb0095
:102c58004800dd00008070006d0040009040780062
:102c68003e089000516898003e0990009281fb0050
:102c7800124290000482fb004822dd00848171002a
:102c880003007800a24190008381fb00324190004c
:102c98000281fb004811dd0002817100820078008a
:102ca8002e0990008001eb0000014100818149005c
:102cb8003e089000f10f2000810061004042900022
:102cc800604262008140720041409800c810de00f6
:102cd800504290006042620081407200514098006a
:102ce800f10f200081806100604290006042620024
:102cf8008140720061409800c818de007041900061
:102d08006041610081407100714098003e08900068
:102d1800806090008180fb00106090000080fb00c4
:102d28004800dd000080700070004000904078008e
:102d38003e089000416898003e089000806090002e
:102d48008180fb00106090000080fb004800dd00df
:102d580000807000f60040003e0890007c004000b3
:102d680022002000a2f807003e099000c2599000f6
:102d78008381fb00525a90000482fb004822dd0048
:102d88008481710003007800e25990008381fb0080
:102d9800725990000281fb004811dd000281710028
:102da80082007800e00f5000e08f58000d003a00d4
:102db8003e089000806090008180fb0010609000c9
:102dc8000080fb004800dd00008070004102200008
:102dd800808040003e0890007c00400042002000b7
:102de80083f807003e089000c04090008180fb00f7
:102df800504190000281fb004811dd008280700084
:102e080001027800e04090008180fb007040900053
:102e18000080fb004800dd00008070008002780020
:102e28003e089000406890000081fb008001eb00a4
:102e38003e0b9000c65b90008783fb00565c9000b9
:102e48000884fb004844dd0088837300070078008d
:102e5800e65b90008783fb00765b90000683fb00af
:102e68004833dd000683730086007800809bb90034
:102e7800828cb90088037800070343000010b8006b
:102e88000103430086007800040140008581480062
:102e98003e089000f10f200081006100004a900078
:102ea800604262008140720001489800c810de004c
:102eb800104a9000604262008140720011489800f8
:102ec800f10f200081806100204a9000604262007a
:102ed8008140720021489800c818de0030499000ef
:102ee8006041610081407100314898003e089000bf
:102ef800806090008180fb00106090000080fb00e3
:102f08004800dd0000807000f10040003e0890009d
:102f1800a002b0002200200035f807003e0890000b
:102f2800806090008180fb00106090000080fb00b2
:102f38004800dd0000807000f30040006e0047008c
:102f4800220020002af807007e0090008e089000da
:102f5800e00f5000e08f58000c003a003e08900047
:102f6800806090008180fb00106090000080fb0072
:102f78004800dd00008070000102200080804000d1
:102f88006e0047004200200019f807003e08900034
:102f9800806090008180fb00106090000080fb0042
:102fa8004800dd0000807000eb0040007200470020
:102fb800220020000ef807001e0890000000e00024
:102fc800050032001e089000610060000040780093
:102fd8000004e0000300320040022000000f7800e7
:102fe8000d0137003e089000a06890008180fb002a
:102ff800306890000080fb004800dd000080700011
:10300800c500dd001e089000008040008000e90037
:103018001e08900000057800110009008a80d80079
:103028008000eb0030079800410798007e0390006d
:103038008e0b90002e0890006104b8003e089000a6
:10304800406890000081fb008001eb003e0a900080
:10305800c45a90008582fb00545d90000a85fb00ed
:103068004855dd008a82720005007800e45a900015
:103078008582fb00745a90000482fb004822dd0020
:103088000482720084007800809ab900828db900a9
:103098008a027800050242000010b80001024200ce
:1030a8008400780008014000898148003e009000b3
:1030b800ce009000020040008380480000005300ca
:1030c80081805b0050079800610798003e089000d7
:1030d800506890000080fb008000eb000001be00fb
:1030e8005e009000ee00900085f707000001be002a
:1030f8003e089000f10f20008100610040529000ce
:10310800604262008140720041509800c810de00a1
:103118005052900060426200814072005150980005
:10312800f10f2000818061006052900060426200cf
:103138008140720061509800c818de0070519000fc
:103148006041610081407100715098003e09900013
:10315800c25190008381fb00525290000482fb0010
:103168004822dd008481710003007800e25190005c
:103178008381fb00725190000281fb004811dd0041
:10318800028171008200780042ff200003002000c5
:10319800820f5000838f580004003e003e089000c4
:1031a80011c0b300616898001b0037003e09900009
:1031b800c25190008381fb00525290000482fb00b0
:1031c8004822dd008481710003007800e2519000fc
:1031d8008381fb00725190000281fb004811dd00e1
:1031e800028171008200780042ff2f000300200056
:1031f800820f5000838f580004003e003e08900064
:1032080021c0b30061689800030037003e089000b1
:1032180031c0b300616898003e0890006068900073
:10322800e34f500038003a003e089000806090005c
:103238008180fb00106090000080fb004800dd00ea
:1032480000807000c1022000808040003e0890008d
:103258006c0040004200200065f707003e0990001e
:10326800824990008381fb00124a90000482fb008f
:103278004822dd008481710003007800a249900093
:103288008381fb00324990000281fb004811dd0078
:1032980002817100820078003e019000ce0190000a
:1032a80000014100818149003e089000f10f200093
:1032b800810061000052900060426200814072000b
:1032c80001509800c810de00105290006042620061
:1032d8008140720011509800f10f20008180610038
:1032e8002052900060426200814072002150980094
:1032f800c818de00305190006041610081407100c3
:10330800315098003e0037003e089000c0489000b9
:10331800e0c0600041489800d0489000e0c06000dc
:1033280051489800e0489000e0c06000614898006b
:10333800f0489000e0c06000714898003e09900095
:10334800824990008381fb00124a90000482fb00ae
:103358004822dd008481710003007800a2499000b2
:103368008381fb00324990000281fb004811dd0097
:1033780002817100820078003e099000a2699000e5
:103388008381fb00326990000281fb004811dd0057
:10339800028171004411de008001eb000001410050
:1033a800818149003e089000f10f200081006100f2
:1033b8000052900060426200814072000150980003
:1033c800c810de0010529000604262008140720016
:1033d80011509800f10f2000818061002052900068
:1033e800604262008140720021509800c818de00d7
:1033f8003051900060416100814071003150980067
:103408009e08900000202000808f500002003600a7
:1034180040022000000f78003e089000606890008d
:10342800e34f50000d0032001e0078000000e0005d
:103438009e0032002e009000a0c0900090c2b30001
:1034480080cf5000050032002e009000a0c09000f0
:1034580080c2b30080cf500096003a002e00900042
:10346800b05090008180fb00405090000080fb002d
:103478004800dd00008070000000e0000a003a000b
:103488002e009000a0c0900090c2b30080cf5000e2
:10349800070032002e009000a0c0900080c2b30048
:1034a80080cf50000200320030002000000f78006a
:1034b8001e0078000000e000400032002e4090001e
:1034c8000004a2000004e0003c00320010c0b30079
:1034d800204798003e089000e06090008180fb0043
:1034e800706090000080fb004800dd0000807000e4
:1034f800c00290003e089000806090008180fb0030
:10350800106090000080fb004800dd000080700023
:10351800000278003e0990009281fb00124390005f
:103528000683fb004833dd008681710003007800c4
:10353800a24190008381fb00324190000281fb0090
:103548004811dd0002817100820078002e01900090
:10355800a27190008381fb00327190000281fb0010
:103568004811dd00028171008001eb00000141007b
:10357800818149003e089000806890008180fb00ae
:10358800106890000080fb004800dd00008070009b
:1035980084007800050001000004a2000004e00097
:1035a8000300320080002000000f7800460037003a
:1035b8000000eb00000f78003b0037001e00780089
:1035c8000000e0003d0032003e4090000004a200f0
:1035d8000004e0003b00320010c0b3003047980000
:1035e8003e089000e06090008180fb0070609000d1
:1035f8000080fb004800dd0000807000c0029000e1
:103608003e089000806090008180fb001060900070
:103618000080fb004800dd00008070000002780098
:103628003e0990009281fb00124390000683fb0044
:103638004833dd008681710003007800a2419000c4
:103648008381fb00324190000281fb004811dd00bc
:10365800028171008200780066014000e081480024
:103668003e089000806890008180fb001068900000
:103678000080fb004800dd000080700084007800b6
:10368800050001000004a2000004e000030032006d
:1036980080002000000f78000b0037000000eb00ce
:1036a800000f7800000000004cfd3700000000000b
:1036b800050037000000000003003700000000008c
:1036c80001003700000000001e0078004f05780058
:1036d8004f04be000080fa00000006000600fa0051
:1036e800404798004e4090007bfa0700100798006a
:1036f8001e0090000000e00002003a000080eb008d
:10370800610037001e009000c06090008180fb00bf
:10371800506090000080fb004800dd0000807000d1
:10372800d00090001e009000808f50000f003a00db
:10373800110020001e009000200807008000eb0008
:103748001e0090001d0807001e009000c060900039
:103758008180fb00506090000080fb004800dd0085
:10376800008070008000eb00510098001e0090005f
:10377800e06090008180fb00706090000080fb009a
:103788004800dd0000807000b00090001e0090002e
:10379800006990000281fb00106890000080fb0027
:1037a8004800dd0000007100010001000040eb004e
:1037b800004f7800210037009e80fb006003200046
:1037c8008088b9000003b000d19a22000080400030
:1037d800904078004e40900080cf500016003a008c
:1037e8009e80fb00400221000080400011c0b30011
:1037f800014878001e81fb00d19a22006003200056
:103808008090b90000804000e002b0008040eb00ea
:10381800014878001e81fb00d19a22006003200035
:103828008090b900008040000003b0008040eb00a9
:1038380001487800040037001e4fe8001e40780059
:103848000004e000dcff320080022100b00090009c
:103858001e009000808f50000a003a00820221006a
:103868006000b80010019800210198008002210032
:103878008000eb0031009800800221008000eb00fe
:10388800010878000000eb000080fa000000060044
:103898000c00fa0040079800214f98001000200003
:1038a800100798000040eb00404798000040eb00ec
:1038b800504798004e00900090407800e0c2b30056
:1038c80080cf500099003a004e0090000000e800b8
:1038d80010407800604798006e4090000004e000b7
:1038e80004003200ee409000f0c2b30080cf5000d8
:1038f80002003a0030c0b300a4003700ee40900048
:10390800e0c2b30080cf50008a003a004e00900019
:103918000080e80010407800604798006e409000f2
:103928000004e00004003200ee409000f0c2b30052
:1039380080cf500081003a0030c0b30093003700b8
:103948001e009000e10f500055003a005e409000c4
:103958000040e80050479800ee40900000c4b300d3
:1039680080cf500004003600ee409000a0c5b300a0
:1039780080cf50003c003600ee409000f0c2b3000b
:1039880080cf500004003600ee40900090c3b30092
:1039980080cf5000340036006e4090000004e000f4
:1039a80031003500ee409000e0c2b30080cf5000f7
:1039b8000c003a004e4090000004a2000004e00011
:1039c8000500320010c0b300404798000040eb00eb
:1039d8005047980024003700200020001007980066
:1039e800210037000040eb00004f78000800370046
:1039f8001e80fb0001f628000080400090407800ff
:103a08006e40900080cf5000050032001e4fe80045
:103a18001e407800f04f5000f5ff360001003700d7
:103a2800000000001e407800f14f50000e003a00e0
:103a38002e4890000004a2000004e00008003a00ac
:103a4800ee409000f0c3b30080cf50000600320073
:103a5800ee409000a0c2b30080cf500002003200b8
:103a680020002000100798004e4090000004e0005d
:103a7800060032005e409000e34f50000800360018
:103a88002000200010079800050037005e409000d5
:103a9800e84f500002003600200020001007980070
:103aa8001e009000e20f500025003a000040eb0095
:103ab800004f7800190037001e80fb0011f728001e
:103ac80000804000904078006e40900080cf500009
:103ad80011003a002e4890000004a2000004e00003
:103ae80008003a00ee409000f0c3b30080cf5000c9
:103af80009003200ee409000a0c2b30080cf500011
:103b0800050032000000eb00100798001e0090002e
:103b1800004078001d0037001e4fe8001e40780066
:103b2800e84f5000e4ff36000500370000000000b1
:103b3800030037000000000001003700000000000b
:103b48004e00900010407800604798006e4090004a
:103b58000080fb000000ea004f00de000040780013
:103b6800ce0090008100e800410798000004e000c2
:103b780004003200ee409000f0c2b30080cf500045
:103b88006fff3a001e009000004078000080fa00a5
:103b9800000006000600fa001007980021079800a8
:103ba8000040eb00004f7800070037001e80fb0044
:103bb800ae009000008040006002b0009e4090007f
:103bc800114098001e4fe8001e00900090407800b9
:103bd800114798009e409000e0c2b30000c0680002
:103be8000080fb000000ea004f00de000040780083
:103bf8009e0090008100e800110798000004e00092
:103c08000f0032001e4090000004e0000c0032005b
:103c18009e409000f0c2b30080cf5000e3ff3a000e
:103c2800070037001e80fb00ae00900000804000b7
:103c38006002b00001c2b300114098001e4fe800b6
:103c48001e407800e74f5000f6ff36009e40900077
:103c5800e0c2b30080cf50001d003a0007003700d3
:103c68001e80fb00ae009000008040006002b000a3
:103c78009e409000114098001e4fe8001e009000e2
:103c880090407800114798001e4090000080fb008b
:103c98000000ea004f00de00004078009e0090001f
:103ca8008100e800110798000004e000ecff3a00ea
:103cb800070037001e80fb00ae0090000080400027
:103cc8006002b00001c2b300114098001e4fe80026
:103cd8001e407800ea4f5000f6ff36000080fa00d8
:103ce800000006001c00fa00300f9800410f9800f1
:103cf800520f98000000eb00200f98006800470062
:103d08000041eb00ce08900023010700400f980007
:103d18004e0890000000e00002003a000080eb002e
:103d2800c80037005e009000ee009000000f980079
:103d3800110f98007e009000e06090008180fb00e9
:103d4800706090000080fb004800dd00008070007b
:103d5800e00090007e009000006990000281fb0066
:103d6800106890000080fb004800dd000000710032
:103d7800010001000004e000090032005e08900024
:103d88006e0060000000e000050032007e00900038
:103d9800a1c1b300017098000080eb00a9003700b2
:103da8003e0890000000e00005003a007e00900008
:103db80021c2b300017098000080eb00a100370019
:103dc8008040eb004e089000b1fe070020479800a5
:103dd8002e409000e14f50001c003a005e00900019
:103de800ee009000000f9800110f98000000eb0003
:103df800200f9800be0890004e08900065ff07004d
:103e08003e0890007002b00080007800f40147007e
:103e18007001470068004700270020000003eb00fe
:103e28008002eb000302780082017800010178002b
:103e3800be089000eb000700000f78001e00780015
:103e48000000e00006003200200037007e009000ed
:103e580031c1b300017098000080eb007900370091
:103e68005e089000680060000000e00006003a006c
:103e780068004700be089000740007000004a20014
:103e88000004e0000d0032003e0890007008900029
:103e9800300798006600470012c0b3008000780021
:103ea8003e0890004a0a0700000f78005e0890005c
:103eb8000020a000500f9800190037005e089000fd
:103ec8000020a100500f9800150037001e00780050
:103ed800ef0f500012003a005e0890006400600086
:103ee8000000e0000e0032000000eb00000f780038
:103ef800fe0090003e089000410898005e00900087
:103f0800ee0090003e0990000089be005e0090001f
:103f1800ee0090003e0990002001980031019800c1
:103f28001e0078000000e0000c003a005e089000d7
:103f3800640060000000e0000800320012c0b30016
:103f48008040eb003e08900076010700000f7800e3
:103f58005e0890000040a000500f98001e007800f6
:103f68000000e0002d003a005e089000610060004b
:103f7800004078000004e000050032003e08900090
:103f8800901890000110a000111898000400370044
:103f98003e089000901890000110a1001118980098
:103fa8005e089000620060000000e000050032003a
:103fb8003e089000901890000100a0001118980089
:103fc800040037003e089000901890000100a100fe
:103fd800111898005e089000700060000000e00072
:103fe8000e003200210020006011b8003e08900049
:103ff800af0e0700200798002e0090000000e00098
:1040080003003200c0012000000f780003003700d1
:104018005e0890000040a100500f98001e00780034
:104028000000e000060032007e0090009e0078004c
:1040380081407800017098000080eb000100370093
:104048000000eb000080fa00000006000e00fa00f5
:1040580050079800610798006e009000900090004b
:104068001000780020079800310798000000eb0046
:10407800400798002e009000be009000e00f50000e
:10408800e08f580012003a005e0090003001900066
:10409800c24990008381fb00524a90000482fb00d1
:1040a8004822dd008481710003007800e249900015
:1040b8008381fb00724990000281fb004811dd00fa
:1040c800028171008200780020079800310798006b
:1040d8006e009000f009900068014700e400470076
:1040e8000e80e80003027800820178000101780060
:1040f800800078005e00900060040700000f7800e0
:104108001e0078000000e00002003a000040eb00ca
:104118000b0037001e007800200890000000e00027
:1041280006003a001e007800500890000000e000e9
:1041380002003a000040eb000100370010c0b30055
:104148000080fa00000006000600fa002007980028
:104158002e009000200890008000eb00008fbe0029
:104168001e0078009e009000c000dd0000002000c6
:10417800008fbe002e009000500890008000eb00d9
:104188001e1f70001e9770001e0078009e00900091
:104198000080fa00000006000800fa0010079800e6
:1041a80021079800624798002e009000a8f30700a6
:1041b800000f78001e0078000000e00002003a00be
:1041c8000000eb000500370082002000810221007a
:1041d8001e00900086f307002e0090000080fa0071
:1041e800000006001400fa00200798003107980024
:1041f80042079800530798006407980075079800cd
:10420800060f9800170f98000000eb0010079800a1
:104218005e0090009000900010007800e00f5000c1
:10422800e08f580016003a002e00900030019000f0
:10423800c24990008381fb00524a90000482fb002f
:104248004822dd008481710003007800e249900073
:104258008381fb00724990000281fb004811dd0058
:1042680002817100820078005e0190000089be0022
:1042780003003700000000000100370000000000c4
:104288000e80e8007e029000ee0190005e01900032
:10429800800078002e009000f8030700000f7800d7
:1042a8001e009000ef0f5000240032001e00900006
:1042b800fd0f500006003a002e00900030009000dc
:1042c800d1c1b300017098001e0090009300370020
:1042d8001e00780030489000e84f500003003a0074
:1042e8000e089000e80f5000160032007e00900083
:1042f8000000e800700798001e0078003048900021
:10430800ef4f5000080032001e007800304890003f
:10431800e84f5000040032001e007800104078007a
:10432800fb4f400008003a001e007800104078005b
:104338000004e000d2ff3a0003003700000000004c
:1043480001003700000000001e009000ef0f500031
:10435800040032001e007800104078000004e000dd
:1043680002003a00f00020006c0037001e089000a0
:10437800680060000000e0000a0032001e007800bb
:10438800304890008080fb000e089000808060001c
:104398001e007800304890000080fb00808f50009d
:1043a800b4ff3a001e089000804078001e00780094
:1043b80001417800800078004e009000b3050700a6
:1043c8000004e000adff32009e0078003e0090003f
:1043d8007002b000b200200005f307002e00900024
:1043e800b00090003e009000410898001e00780040
:1043f80055ff07003e0190004001980051019800c8
:104408003e009000d0009000400090003e019000d7
:1044180060019800710198003e0090008000eb0058
:10442800510898003e0090008000eb006108980059
:104438003e0190006000b8002009980031099800fa
:104448001e007800f0089000600890003e0190007f
:1044580000099800110998001e0078003048900063
:104468008080fb003e009000011098003e00900004
:1044780000109000700060000000e0000d003200a5
:104488001e007800d04890003e00900061609800bf
:104498001e007800f00090003e0090001110980077
:1044a8001e007800800890003e00900021109800bf
:1044b800080037001e007800b00890003e00900009
:1044c800111098001e007800c00890003e0090006f
:1044d800211098007e0090000000e9007007980005
:1044e8003e009000fe009000710898002e00900099
:1044f800a0009000100090003e0190000089be00ce
:104508002e009000a0009000100090003e01900046
:1045180020019800310198000000eb000080fa00ab
:10452800000006000a00fa0030079800014f9800c2
:10453800124f98000000eb00000f78008102210064
:104548003e0090004e0107000000e0001b003a000a
:104558001e4890000004e0000a0032003e0090006f
:104568002000070010079800210798003e009000df
:1045780040089000007090000080fb00000f780059
:10458800030037006000b800100798002107980062
:104598001e0078000000e0000a003a001e029000a9
:1045a800ae0290000e499000810221003e0090006a
:1045b80079000700000f7800020037006001200032
:1045c800000f78003e009000400890009e007800a0
:1045d80081407800017098001e0078000080fa0081
:1045e800000006000a00fa00400798000000eb00ef
:1045f800000f78004e0090004008900010079800c7
:104608004e00900040089000e8010700200798003d
:10461800310798002e009000be009000e00f500077
:10462800e08f580003003a0070012000000f780066
:104638003f0037001e00900060689000e14f500076
:1046480010003a008040eb00f4ff20000500200035
:104658002e019000be0190001e0090008f090700f7
:104668000001be00f0ff2f0001002000800f510064
:10467800818f590026003a0090002000000f780032
:10468800230037001e00900060689000e24f500041
:1046980010003a008040eb0084ff2f000500200046
:1046a8002e019000be0190001e0090007b090700bb
:1046b8000001be00f0ff2f0001002000800f510014
:1046c800818f590012003a0090002000000f7800f6
:1046d8000f0037008040eb0084ff2f00f5ff20001b
:1046e8002e019000be0190001e0090006b0907008b
:1046f8000001be00f0ff2f00f1ff2000800f5100e5
:10470800818f590002003a0090002000000f7800c5
:104718001e0078000000e00005003a002e0190001d
:10472800be0190001e0090004d020700000f7800a7
:10473800110020001e009000200407000004a200c1
:104748000004e0000200320090002000000f780012
:104758004e0090002e019000be019000420098008b
:10476800530098004e0090002e019000be0190006a
:1047780062009800730098001e007800804078005e
:104788001e009000017098002e009000be0090005e
:104798000080fa00000006002200fa00400f98008e
:1047a800510f9800425f9800740f98000517980001
:1047b8000000eb00100798000000eb00000f9800c5
:1047c8004e08900090009000100078003007980084
:1047d800410798004e089000400890005007980044
:1047e8004e08900090009000100078006007980034
:1047f800710798005e08900010027800f0014700e9
:104808006c0147008e80e800640047009b020700a7
:10481800000f78001e0078000000e00006003a0053
:104828004e08900040089000d1c1b3000170980074
:10483800d0012000900037004e089000710220003f
:10484800808040001e007800b200200006f20700b9
:104858001e007800ce589000314898001e0078005d
:104868008040eb0041489800fe0890001e00780048
:10487800510898007e0990008e11900000002000d9
:10488800f1ff20000202780003017800800178001f
:104898000100780003026200000061008000eb0064
:1048a800c000dd00000020000001be006120b8004b
:1048b80000017100818171004018de0001002000b4
:1048c800800078001e007800210898001e017800fa
:1048d8006000b80060099800710998003081800074
:1048e8000000e000030032003181800072004700c0
:1048f80001000100ee5090001e0078005148980019
:10490800ae0890001e007800710098009e08900084
:104918001e00780001089800ae0890001e0078007c
:10492800310898009e0890001e0078004108980001
:104938004e0890007e0990008e1190004200980069
:10494800530098004e0890007e0990008e11900048
:1049580062009800730098004e0890008000eb00f9
:10496800510898004e0890008000eb0061089800fc
:104978004e0990006000b80020099800310998009d
:104988001e007800f0089000600890004e09900022
:1049980000099800110998001e007800304890001e
:1049a8008080fb004e089000011098004e0890008f
:1049b80000109000700060000000e0000d00320060
:1049c8001e007800d04890004e0890006160980062
:1049d8001e007800f00090004e089000111098001a
:1049e8001e007800800890004e0890002110980062
:1049f800080037001e007800b00890004e089000ac
:104a0800111098001e007800c00890004e08900011
:104a1800211098005e089000900078004e089000e1
:104a2800710898003e009000ce0090004e0990005a
:104a38000089be003e009000ce0090004e09900014
:104a480020019800310198004e089000400890001d
:104a5800c06090008180fb00506090000080fb00e7
:104a68004800dd0000807000c00090000100a00038
:104a7800410098001e0090000080fa000000060027
:104a88002400fa0000179800111798000000eb00a6
:104a9800000f98000e109000900090001000780011
:104aa800500f9800610f98000000eb00700f9800fd
:104ab8000000eb00300798000e10900040089000ae
:104ac800400f98000e1090009000900010007800a1
:104ad800200f9800310f980010c0b300004f9800c5
:104ae8001e10900090007800210798005a003700a7
:104af8000040eb00004f78002e019000120798004c
:104b08005e099000ee09900052079800630798002c
:104b1800fe0147007a014700f00047007200470095
:104b28002e029000d5010700700798002e00900013
:104b38000000e800200798007e0090000000e000d8
:104b48000d0032007e00900010407800fb4f4000be
:104b5800040032007e009000104078000004e0005d
:104b680005003a001e4fe8000e4890009e4078006d
:104b780080cf5000e2ff39007e0090000000e00086
:104b88002f003a000e1090004008900000017800b5
:104b9800c24990008381fb00524a90000482fb00c6
:104ba8004822dd008481710003007800e24990000a
:104bb8008381fb00724990000281fb004811dd00ef
:104bc80002817100820078005e099000ee09900071
:104bd800820f5000838f580008003a000e10900092
:104be8004008900060689000e34f500003003200d6
:104bf8002000200030079800170037005e01900061
:104c0800ee019000520f9800630f98000e1090006c
:104c180040089000fa00470012c0b3001c000700cb
:104c2800f70f500003003a002000200030079800da
:104c380009003700100020003007980006003700f0
:104c48000e4890009e40780080cf500002003a0045
:104c580010002000300798003e0090000000e0009f
:104c6800a3ff32001e1090009e01900003087800f8
:104c78003e009000e10f500002003a000000eb00f7
:104c880001003700f00020000080fa000000060054
:104c98000a00fa002007980031079800024f980090
:104ca8002e00900041000700008fbe001e00780013
:104cb8009e009000e00f5000e08f580002003a007c
:104cc80070012000370037002e00900060689000c7
:104cd800e14f500008003a008040eb00f4ff20004c
:104ce800050020001e0178009e0190002e00900013
:104cf800ea070700170037002e0090006068900050
:104d0800e24f500008003a008040eb0084ff2f007b
:104d1800050020001e0178009e0190002e009000e2
:104d2800de0707000b0037002e0090006068900037
:104d3800e34f500007003a008040eb0084ff2f004b
:104d4800f5ff20001e0178009e0190002e009000c3
:104d5800d20707003e0090001001780090019000f3
:104d68008040eb001e0278009e0290002e0090000a
:104d7800ca0707003e0090003e1878002e10780001
:104d88000e4890000004e000050032001e01780083
:104d98009e0190002e009000b1000700010037002e
:104da8000000eb000080fa00000006001600fa0080
:104db800200f98006000b800000f9800110f9800ad
:104dc8002e099000a27190008381fb00327290003e
:104dd8000482fb004822dd00848171000300780012
:104de800c27190008381fb00527190000281fb0028
:104df8004811dd0002817100820078006007980088
:104e0800710798002e089000606890000080fb00f1
:104e1800e10f50000b003200e30f500012003a007f
:104e280070ff2f00f1ff200020079800310798003d
:104e3800f0ff2f00f1ff200040079800510798006d
:104e48001200370070ff20000100200020079800a2
:104e580031079800f0ff2f0001002000400798005c
:104e6800510798000900370070ff2f00010020004b
:104e78002007980031079800f0ff2f00010020005c
:104e88004007980051079800000000006e0190004c
:104e9800fe0190001000200001002000800f51004a
:104ea800818f590004003e002000200001002000ee
:104eb80060079800710798006e019000fe0190004d
:104ec800028fbe00410037001e0178009e0190004d
:104ed8002e089000b0030700000f9800110f9800eb
:104ee8000e0990009e0990004e009000de00900090
:104ef800800f5100818f590003003a006000b8000c
:104f0800008fbe00380037000e0890009e08900001
:104f1800e00f5000e08f58003200320012002000ed
:104f2800030020001e0f41005e9749000e09900003
:104f38009e0990002e009000be009000800f510046
:104f4800818f5900140032002e099000c251900040
:104f58008381fb00525290000482fb004822dd004e
:104f68008481710003007800e25190008381fb0086
:104f7800725190000281fb004811dd00028171002e
:104f88008200780062004000e0804800be0f5000b8
:104f9800ae8f580003003e002000200001002000d2
:104fa800008fbe006e009000fe0090001e01780089
:104fb8009e019000800f5100818f590003003a0034
:104fc8006000b800008fbe00070037001e007800a0
:104fd8009e009000e00f5000e08f5800baff3a00a2
:104fe80001003700000000002e089000f10f20009b
:104ff8009e806000207190006041610081407100d6
:10500800217098009e007800c808de00307190007a
:105018006041610081407100317098001e0190006c
:10502800f10f200081006100407190006041610033
:1050380081407100417098009e009000c808de0011
:10504800507190006041610081407100517098007a
:105058001e0078009e0090000080fa000000060004
:105068000e00fa004007980052079800630798005e
:105078000000eb00000f78005e019000ee01900048
:105088004e009000d50207001007980021079800ed
:105098008000eb004e009000c80107000004a20049
:1050a8000004e000050032004e00900091c0b300fb
:1050b80001709800900020006e0037004e019000ab
:1050c800825990008381fb00125a90000482fb00f1
:1050d8004822dd008481710003007800a259900005
:1050e8008381fb00325990000281fb004811dd00ea
:1050f8000281710082007800800078004e009000e4
:10510800006190000281fb00106090000080fb00ad
:105118004800dd0000007100010178008000eb000c
:10512800baef07000040eb006047980029003700fd
:105138004e009000e06090008180fb00706090005d
:105148000080fb004800dd000080700050039000e4
:105158004e009000806090008180fb0010609000fd
:105168000080fb004800dd000080700080027800ad
:105178001e019000ae0190001e009000ae0090004d
:1051880061004000e080480010079800210798005f
:105198004e009000806890008180fb0010689000ad
:1051a8000080fb004800dd00008070000042eb003a
:1051b80085007800060001000004e00002003a00c3
:1051c80090002000000f78006e4090000040e8003a
:1051d800604798004e009000d06890006e409000a4
:1051e80080cf5000030036001e0078000000e00069
:1051f800cfff32004e009000c06090008180fb001d
:10520800506090000080fb004800dd0000807000c6
:10521800000278004e009000506890000080fb006b
:105228008000eb001e019000ae01900000005100cc
:1052380081805900008abe004e009000c060900036
:105248008180fb00506090000080fb004800dd007a
:1052580000807000c00090000100a100410098008b
:105268001e007800804078004e0090000170980081
:105278001e0078000080fa00000006001a00fa00fc
:1052880070079800010f9800120f9800230f9800dc
:10529800340f98007e009000b0009000310798000d
:1052a8003e019000825990008381fb00125a9000c1
:1052b8000482fb004822dd0084817100030078002d
:1052c800a25990008381fb00325990000281fb00b3
:1052d8004811dd0002817100820078004b09dd0071
:1052e8004500de0000007100c508de00004f980090
:1052f8000e4890000080fb00be08900080017800f6
:10530800110009008380d800000f78003e0090004b
:1053180060689000e34f5000290032001e0890009a
:105328009000900010007800e00f5000e08f5800c7
:1053380023003a003e009000a06890008180fb00a6
:10534800306890000080fb004800dd00008070009d
:10535800800078003e089000808f500005003e00d5
:105368000e089000f1002000010878000000eb0012
:10537800dd0037007e009000a00090001000900033
:105388007e019000320290000001be000400780007
:105398001202070010079800210798001e007800e5
:1053a8008000eb001e019000ae019000020040005a
:1053b800838048001007980021079800650037008f
:1053c8003e009000506890000080fb009e0078002e
:1053d80000017800110009008280d8005007980069
:1053e8002e089000900078005e009000808f50009a
:1053f800080036002e0890008000eb0001087800b5
:105408007e009000a0009000100090001e099000ff
:105418000089be003e009000506890008080fb002c
:105428002e089000100078008088b9001e0f100028
:10543800330037001e08900090009000100078009c
:105448000001be003e009000530207001e099000b4
:105458000089be003e009000606890000080fb005c
:10546800e30f50000d003a001e089000100178006c
:105478009001900080ff2f00f1ff2000800f510065
:10548800818f590012003a000e089000f1002000a8
